:100000000C9458000C9480000C9480000C94800098
:100010000C9480000C9480000C9480000C94800060
:100020000C9480000C9480000C9480000C94800050
:100030000C9480000C9480000C9480000C94800040
:100040000C9496020C9480000C9406030C94E0022D
:100050000C9480000C9480000C9480000C94800020
:100060000C9438030C948000000000002500280048
:100070002B00040404040404040402020202020229
:10008000030303030303010204081020408001025C
:1000900004081020010204081020000000080002DB
:1000A00001000003040700000000000000006604D7
:1000B00011241FBECFEFD8E0DEBFCDBF11E0A0E01E
:1000C000B1E0E2E6FCE002C005900D92A432B10777
:1000D000D9F722E0A4E2B1E001C01D92A739B2072E
:1000E000E1F710E0C8E5D0E004C02197FE010E94CE
:1000F0002406C735D107C9F70E94AE040C942F0619
:100100000C94000090E0FC01E656FF4F2491FC01A6
:10011000EA57FF4F3491FC01EE58FF4FE491EE2374
:10012000B1F1222339F1233091F038F42130A9F0D4
:10013000223001F584B58F7D12C0273091F0283030
:10014000A1F02430B9F4809180008F7D03C08091AC
:1001500080008F77809380000DC084B58F7784BD39
:1001600009C08091B0008F7703C08091B0008F7D6F
:100170008093B000F0E0EE0FFF1FE859FF4FA5910C
:10018000B4918FB7F894EC91E32BEC938FBF089563
:1001900008950895CF92DF92EF92FF920F931F93ED
:1001A000CF93DF936C017A018B01C0E0D0E0CE15D4
:1001B000DF0581F0D8016D918D01D601ED91FC91A3
:1001C0000190F081E02DC6010995892B11F021964F
:1001D000EECF7E01C701DF91CF911F910F91FF906C
:1001E000EF90DF90CF900895FC01538D448D252F23
:1001F00030E0842F90E0821B930B541710F0CF96C1
:10020000089501970895FC01918D828D981761F0F2
:10021000828DDF01A80FB11D5D968C91928D9F5F3D
:100220009F73928F90E008958FEF9FEF0895FC01E8
:10023000918D828D981731F0828DE80FF11D858D9B
:1002400090E008958FEF9FEF0895FC01918D228D2E
:10025000892F90E0805C9F4F821B91098F739927B3
:10026000089581EE91E00E94250121E0892B09F497
:1002700020E0822F0895FC01848DDF01A80FB11DBD
:10028000A35ABF4F2C91848D90E001968F739927CC
:10029000848FA689B7892C93A089B1898C918370AA
:1002A00080648C93938D848D981306C00288F389A3
:1002B000E02D80818F7D80830895EF92FF920F93D0
:1002C0001F93CF93DF93EC0181E0888F9B8D8C8D02
:1002D000981305C0E889F989808185FD26C0F62E2E
:1002E0000B8D10E00F5F1F4F0F731127E02E8C8DC9
:1002F000E8120CC00FB607FCFACFE889F9898081B3
:1003000085FFF5CFCE010E943B01F1CF8B8DFE0121
:10031000E80FF11DE35AFF4FF0829FB7F8940B8F5F
:10032000EA89FB89808180620AC09FB7F894EE89D0
:10033000FF896083E889F989808183708064808384
:100340009FBF81E090E0DF91CF911F910F91FF90CF
:10035000EF900895CF93DF93EC01888D8823C9F047
:10036000EA89FB89808185FD05C0A889B9898C91BE
:1003700086FD0FC00FB607FCF5CF808185FFF2CF59
:10038000A889B9898C9185FFEDCFCE010E943B01F0
:10039000E7CFDF91CF91089580E090E0892B29F09D
:1003A0000E94310181110C940000089585ED809325
:1003B000BC008091BC0084FDFCCF1092B301089575
:1003C00040916401262F30E0240F311D2132310588
:1003D000DCF42091B3012430C9F4FC0180E090E00A
:1003E000861758F4309164012191DC01AC5BBE4F5B
:1003F000A30FB11D2C930196F3CF80916401680F78
:100400006093640180E0089581E0089582E008959A
:100410000895E0918C0180918B01E81730F4F0E0B1
:10042000EC5DFE4F808190E008958FEF9FEF08957F
:1004300090918C0180918B01981750F4E92FF0E096
:10044000EC5DFE4F208130E09F5F90938C0102C0F5
:100450002FEF3FEFC901089580918B0190E020912B
:100460008C01821B91090895CF92DF92EF92FF9247
:100470000F931F93CF93DF937C01CB018A012091CF
:10048000B401222389F0EB016B01C40ED51ECC15FB
:10049000DD0569F06991D701ED91FC910190F08142
:1004A000E02DC7010995F3CF642F0E94E001C80138
:1004B000DF91CF911F910F91FF90EF90DF90CF9040
:1004C0000895CF93DF931F92CDB7DEB76983209154
:1004D000B4012223D1F02091D701203240F021E055
:1004E00030E0FC013383228380E090E015C08091EE
:1004F000B501E82FF0E0EA54FE4F998190838F5FB9
:100500008093B5018093D70105C061E0CE010196CB
:100510000E94E00181E090E00F90DF91CF9108957B
:10052000089580E090E008950E942A061F920F929D
:100530000FB60F9211242F933F938F939F93AF93F6
:10054000BF938091DD019091DE01A091DF01B09118
:10055000E0013091DC0123E0230F2D3720F40196D8
:10056000A11DB11D05C026E8230F0296A11DB11DD6
:100570002093DC018093DD019093DE01A093DF01E5
:10058000B093E0018091D8019091D901A091DA0156
:10059000B091DB010196A11DB11D8093D80190930C
:1005A000D901A093DA01B093DB01BF91AF919F9184
:1005B0008F913F912F910F900FBE0F901F90189524
:1005C0001F920F920FB60F9211242F933F934F93C8
:1005D0005F936F937F938F939F93AF93BF93EF93AB
:1005E000FF9381EE91E00E943B01FF91EF91BF915B
:1005F000AF919F918F917F916F915F914F913F91BB
:100600002F910F900FBE0F901F9018951F920F9271
:100610000FB60F9211242F938F939F93EF93FF9315
:10062000E091F101F091F2018081E091F701F09108
:10063000F80182FD12C090818091FA018F5F8F7363
:100640002091FB01821751F0E091FA01F0E0EF51A7
:10065000FE4F958F8093FA0101C08081FF91EF9149
:100660009F918F912F910F900FBE0F901F90189513
:100670001F920F920FB60F9211242F933F934F9317
:100680005F936F937F938F939F93AF93BF93EF93FA
:10069000FF938091B900887F803609F49CC068F58B
:1006A000883209F45BC090F4803109F454C038F406
:1006B000882309F4F6C0883009F44DC0F6C08831AB
:1006C00009F44CC0803209F45DC0EFC0803409F4F5
:1006D00068C048F4803309F455C0883309F0E5C098
:1006E0008093B101D8C0803509F44FC0883509F432
:1006F0005DC0883409F0D9C0D6C0883909F4C7C0B4
:10070000A8F4883709F467C038F4883609F463C060
:10071000803709F460C0C9C0883809F4B8C080398E
:1007200009F45FC0803809F0C0C05BC0803B09F4A9
:1007300086C038F4803A09F466C0883A09F47FC06C
:10074000B4C0803C09F4A7C0883C09F4A4C0883B2D
:1007500009F48AC0AAC080918E0110C09091B001A6
:100760008091AF01981770F5E091B00181E08E0F94
:100770008093B001F0E0E157FE4F80818093BB0091
:1007800085EC86C08093B1018EC0E091B00181E01C
:100790008E0F8093B0018091BB00F0E0E157FE4FD7
:1007A00080839091B0018091AF016EC0E091B00163
:1007B00081E08E0F8093B0018091BB00F0E0E157A3
:1007C000FE4F80838091B20181116DC081E08093E2
:1007D0008D0184EA61C083E08093B30110928601A9
:1007E000CFCF80918601803208F051C0E091860120
:1007F00081E08E0F809386018091BB00F0E0EA5982
:10080000FE4F8083BDCF85EC8093BC001092B30176
:1008100080918601803230F4E0918601F0E0EA595F
:10082000FE4F10826091860170E0E0918701F091A7
:10083000880186E691E009951092860136C084E031
:100840008093B3011092650110926401E0918901D7
:10085000F0918A01099580916401811105C081E0C0
:100860008093640110924401E091650181E08E0F54
:1008700080936501F0E0EC5BFE4F80818093BB00CC
:100880009091650180916401981708F479CF85E80B
:100890008093BC000AC085EC8093BC001092B30129
:1008A00004C01092B1010E94D601FF91EF91BF9157
:1008B000AF919F918F917F916F915F914F913F91F8
:1008C0002F910F900FBE0F901F901895E1EEF1E061
:1008D0001382128288EE93E0A0E0B0E084839583D7
:1008E000A683B78324E031E03183208325EC30E018
:1008F0003587248724EC30E03787268720EC30E0EA
:10090000318B208B21EC30E0338B228B22EC30E0DA
:10091000358B248B26EC30E0378B268B118E128E94
:10092000138E148EEEE7F2E02FEF208312821182F5
:10093000148613864FEF5FEFBA01478350876187B4
:100940007287EBE8F2E01382128284839583A68398
:10095000B78386E191E0918380830895CF93DF93FD
:10096000CDB7DEB729970FB6F894DEBF0FBECDBF67
:10097000789484B5826084BD84B5816084BD85B57A
:10098000826085BD85B5816085BD80916E00816086
:1009900080936E001092810080918100826080932C
:1009A000810080918100816080938100809180002E
:1009B0008160809380008091B10084608093B10059
:1009C0008091B00081608093B00080917A00846053
:1009D00080937A0080917A00826080937A0080917F
:1009E0007A00816080937A0080917A008068809399
:1009F0007A001092C10010928C0110928B0110921B
:100A0000B5011092D7011092B30181E08093B20139
:100A100010928D0182E10E94820083E10E94820097
:100A20008091B9008E7F8093B9008091B9008D7F4D
:100A30008093B90088E48093B80085E48093BC007B
:100A400088EC90E090938A018093890189EC90E092
:100A50009093880180938701E091F101F091F20178
:100A600082E08083E091ED01F091EE011082E0914F
:100A7000EF01F091F0018FEC80831092F901E09189
:100A8000F501F091F60186E08083E091F301F091A9
:100A9000F401808180618083E091F301F091F401A1
:100AA000808188608083E091F301F091F40180817E
:100AB00080688083E091F301F091F40180818F7D63
:100AC000808301E03FE0D32E42E0C42EBB24BA94E1
:100AD00055EEA52E65EC962E81EE91E00E94250143
:100AE000892B09F4AEC0EDB6FEB61986898588302B
:100AF000B0F481EE91E00E942501892BB9F31985AC
:100B000081E0810F898781EE91E00E940301E1E09D
:100B1000F0E0EC0FFD1FE10FF11D8083E7CF1A819C
:100B2000698181EE91E00E945D01612F81EE91E08B
:100B30000E945D01612F70E0CB01880F991F680F43
:100B4000791F8DB79EB7861B970B0FB6F8949EBF83
:100B50000FBE8DBFEDB7FEB731968D819C812B8185
:100B6000ADB7BEB711962C939183828388859F8100
:100B70002E812383948385830093B401D092D60180
:100B80001092B5011092D70148E050E0BE016F5FAE
:100B90007F4F8BE892E00E9434022091D7012132EE
:100BA00008F044C08091B3018111FCCF8091D6013F
:100BB000C092B3010093B201B092B1011092B001A2
:100BC0002093AF01A6EBB1E0EFE8F1E090E0291748
:100BD00021F03D9131939F5FFACF10928E01909159
:100BE0008E01880F892B80938E0180918D01813039
:100BF00069F410928D0180918E018093BB008091E9
:100C0000BC0083FDF8CF9092BC0002C0A092BC0053
:100C10008091B3018230E1F38091B1018F3F31F0D7
:100C20008091B101803211F08091B1011092B50133
:100C30001092D7011092B4010FB6F894FEBE0FBE09
:100C4000EDBE0E94CC0148CFEE0FFF1F0590F4913E
:100C5000E02D099481E090E0F8940C942F06F8942C
:020C6000FFCFC4
:100C6200000000005D01CA00F400AA012501030191
:100C720017010000000061023402910208022C02F6
:040C82001802090249
:00000001FF
